:100000000C942A000C9434000C9434000C943400AA
:100010000C9434000C9434000C9434000C94340090
:100020000C9434000C9434000C9434000C94340080
:100030000C9434000C9434000C9434000C94340070
:100040000C9434000C9434000C9434000C94340060
:100050000C94340011241FBECFE5D4E0DEBFCDBF29
:100060000E9436000C9473000C94000020E030E0F5
:100070000DC04AB381E090E0022E02C0880F991FA4
:100080000A94E2F7842B8ABB2F5F3F4F283031055B
:1000900080F38AEF87BB20E0B09B07C081EE92E03F
:1000A0000197F1F70000B0992F5FB29B07C081EE76
:1000B00092E00197F1F70000B2992150277081E09A
:1000C00090E0022E02C0880F991F0A94E2F78095F3
:1000D0008BBB9FEF3FE784E0915030408040E1F7D9
:0A00E00000C00000D9CFF894FFCF54
:00000001FF
