:100000000C942A000C9434000C9434000C943400AA
:100010000C9434000C9434000C9434000C94340090
:100020000C9434000C9434000C9434000C94340080
:100030000C9434000C9434000C9434000C94340070
:100040000C9434000C9434000C9434000C94340060
:100050000C94340011241FBECFE5D4E0DEBFCDBF29
:100060000E9459000C947A000C94000082E081BB3D
:1000700080B58F7780BD10BC8FE589B98BB18C7F3F
:100080008BB988E18AB986E880BD08958BB180720A
:1000900090E00895CF93C82F0E944600892BE1F38A
:1000A000CCB9CF9108955F9BFECF2CB1FC0120838A
:1000B0000895CF93DF931F92CDB7DEB70E9436002D
:1000C00081E087BB81E6898310E0CE0101960E9422
:1000D00053002FEF8FEF9CE2215080409040E1F7DA
:1000E00000C000008981181781F318130E944A008C
:0800F0001981EBCFF894FFCF5A
:00000001FF
