:100000000C942A000C943F000C943F000C943F0089
:100010000C943F000C943F000C943F000C943F0064
:100020000C943F000C943F000C943F000C943F0054
:100030000C943F000C943F000C943F000C943F0044
:100040000C943F000C943F000C943F000C943F0034
:100050000C943F0011241FBECFE5D4E0DEBFCDBF1E
:1000600010E0A0E6B0E0E0E4F3E002C005900D92FD
:10007000A437B107D9F70E946E010C949E010C942D
:10008000000082B3846082BB00C082B38B7F82BBDE
:100090000895CF93C82F662321F082B3886082BB76
:1000A00003C082B3877F82BB85B38E7F85BB81B35C
:1000B000806181BB81B3806281BB81B3806481BB7D
:1000C00081B3806881BB82B38F7782BB82B38F7B21
:1000D00082BB82B38F7D82BB82B38F7E82BBCC23F7
:1000E0001CF482B3806882BBC6FF03C082B3806405
:1000F00082BBC5FF03C082B3806282BBC4FF03C062
:1001000082B3806182BB0E94410082B38F7782BB41
:1001100082B38F7B82BB82B38F7D82BB82B38F7EA3
:1001200082BBC3FF03C082B3806882BBC2FF03C02F
:1001300082B3806482BBC1FF03C082B3806282BB92
:10014000C0FF03C082B3806182BB0E94410082B3C2
:10015000806182BB82B3806282BB82B3806482BBD7
:1001600082B3806882BBCF910895882321F082B347
:10017000886082BB03C082B3877F82BB85B3816006
:1001800085BB81B38F7E81BB81B38F7D81BB81B302
:100190008F7B81BB81B38F7781BB82B3846082BB4D
:1001A00000C0849902C080E001C080E1859980622E
:1001B000869980648799806892B39B7F92BB00C0C8
:1001C00092B3946092BB00C08499816085998260EB
:1001D000869984608799886092B39B7F92BB0895CB
:1001E00080E00E94B5008823DCF387E090E001976F
:1001F000F1F780E00E94B5000895CF93C82F0E94C8
:10020000F00060E08C2F0E944900CF91089581E0BA
:100210000E94FD000895CF93C82F0E94F000CA30BD
:1002200049F4803410F480E401C080E080580E94DA
:10023000FD0004C061E08C2F0E944900CF91089519
:100240001F93CF93DF93182F81B3886081BB84B352
:10025000816084BB81B3846081BB81B3806181BBD9
:1002600081B3806281BB81B3806481BB81B38068CC
:1002700081BB80E696EE0197F1F782B3806282BB84
:1002800082B3806182BB0E94410080EE97E40197B7
:10029000F1F70E944100CBEED0E0CE010197F1F7DB
:1002A0000E944100CE010197F1F782B38F7E82BB9D
:1002B0000E9441002197F1F788E20E94FD0088E04A
:1002C0000E94FD000E94070186E00E94FD00812F30
:1002D0000E94FD00DF91CF911F910895CF93DF938E
:1002E000CDB7DEB764970FB6F894DEBF0FBECDBFB3
:1002F0008FE00E9420010E9407018DE0E0E6F0E01F
:10030000DE01119601900D928A95E1F7FE013E966D
:1003100087E0DF011D928A95E9F700E010E004C054
:100320000F5F1F4F0E940B01E1E0F0E0EC0FFD1F9B
:10033000E00FF11F80818111F3CFF6CFF894FFCF4A
:1003400048656C6C6F20576F726C64210000000070
:0403500000000000A9
:00000001FF
