:100000000C942A000C9447000C9447000C94470071
:100010000C9447000C9447000C9447000C94470044
:100020000C9447000C9447000C9447000C94720009
:100030000C9447000C9447000C9447000C94470024
:100040000C9447000C9447000C9447000C94470014
:100050000C94470011241FBECFE5D4E0DEBFCDBF16
:1000600010E0A0E6B0E0EAE5F1E002C005900D92F4
:10007000AA36B107D9F720E0AAE6B0E001C01D9288
:10008000AC36B207E1F70E9449000C94AB000C9427
:1000900000000E9484000E94A300789480916A006E
:1000A0008823E1F32FEF8FE796E1215080409040C5
:1000B000E1F700C0000080916B000E949A008091DF
:1000C0006B0080538A3050F40E94A800E0916B00CE
:1000D000F0E0E05DFF4F80810E94A60010926A0070
:1000E000F894DBCF1F920F920FB60F9211248F93CB
:1000F0008CB180936B0081E080936A008F910F90A8
:100100000FBE0F901F90189582E081BB80B58F774E
:1001100080BD10BC87E089B98BB18C7F8BB988E931
:100120008AB986E880BD80E88FBF08958BB1807260
:1001300090E00895CF93C82F0E949600892BE1F399
:10014000CCB9CF9108958FEF8ABB08958BBB0895EA
:0A0150008FEF8BBB0895F894FFCFEA
:0A015A00C0F9A4B0999282F88090D9
:00000001FF
