:100000000C942A000C9434000C9434000C943400AA
:100010000C9434000C9434000C9436000C9434008E
:100020000C9434000C9434000C9434000C94340080
:100030000C9434000C9434000C9434000C94340070
:100040000C9434000C9434000C9434000C94340060
:100050000C94340011241FBECFE5D4E0DEBFCDBF29
:100060000E946F000C9490000C9400001F920F925D
:1000700000905F000F9211242F933F938F939F93D3
:10008000EF93FF93CF93DF93CDB7DEB78BE390E091
:100090002BE330E0F90120812095FC012083000052
:1000A000DF91CF91FF91EF919F918F913F912F9190
:1000B0000F9000925F000F901F901895CF93DF93E1
:1000C000CDB7DEB789E590E029E530E0F901208180
:1000D0002061FC0120830000DF91CF910895CF9330
:1000E000DF93CDB7DEB78AE390E023E0FC01208305
:1000F0008EE490E02CE0FC0120838BE490E020E78C
:10010000FC0120838AE490E020E8FC0120838BE35B
:1001100090E022E0FC0120830E945E007894FFCFF3
:04012000F894FFCF81
:00000001FF
