S00D0000776F726B342E7372656320
S11300000C942A000C9447000C9447000C9447006D
S11300100C9447000C9447000C944E000C94470039
S11300200C9447000C9447000C9447000C94470030
S11300300C9447000C9447000C9447000C94470020
S11300400C9447000C9447000C9447000C94470010
S11300500C94470011241FBECFE5D4E0DEBFCDBF12
S113006010E0A0E6B0E0E8E1F1E002C005900D92F6
S1130070AA36B107D9F720E0AAE6B0E001C01D9284
S1130080AC36B207E1F70E945F000C948A000C942E
S113009000008FEF8ABB08958BBB08951F920F92C7
S11300A00FB60F9211248F9380916A008F5F809313
S11300B06A008F910F900FBE0F901F9018950E94A9
S11300C049000E9486008CE08EBD60E880E70E94B3
S11300D08300789480916A008823E1F3E0916B00B7
S11300E081E08E0F80936B00F0E0E05AFF4F808137
S11300F00E944C0080916B008A3011F410926B00C6
S113010010926A00E7CF8BBD6ABD089589B78061FC
S10B011089BF0895F894FFCFA4
S10D0118C0F9A4B0999282F8809017
S9030000FC
